{
	"contracts/DemoWallet.sol": {
		"DemoWallet": {
			"abi": [
				{
					"inputs": [],
					"stateMutability": "nonpayable",
					"type": "constructor"
				},
				{
					"anonymous": false,
					"inputs": [
						{
							"indexed": false,
							"internalType": "string",
							"name": "message",
							"type": "string"
						},
						{
							"indexed": false,
							"internalType": "uint256",
							"name": "amount",
							"type": "uint256"
						}
					],
					"name": "Log",
					"type": "event"
				},
				{
					"anonymous": false,
					"inputs": [
						{
							"indexed": false,
							"internalType": "string",
							"name": "message",
							"type": "string"
						},
						{
							"indexed": false,
							"internalType": "address",
							"name": "_to",
							"type": "address"
						},
						{
							"indexed": false,
							"internalType": "uint256",
							"name": "amount",
							"type": "uint256"
						}
					],
					"name": "LogSend",
					"type": "event"
				},
				{
					"inputs": [],
					"name": "owner",
					"outputs": [
						{
							"internalType": "address",
							"name": "",
							"type": "address"
						}
					],
					"stateMutability": "view",
					"type": "function"
				},
				{
					"inputs": [
						{
							"internalType": "address payable",
							"name": "_to",
							"type": "address"
						},
						{
							"internalType": "uint256",
							"name": "amount",
							"type": "uint256"
						}
					],
					"name": "sendTo",
					"outputs": [],
					"stateMutability": "nonpayable",
					"type": "function"
				},
				{
					"inputs": [
						{
							"internalType": "uint256",
							"name": "amount",
							"type": "uint256"
						}
					],
					"name": "withDraw",
					"outputs": [],
					"stateMutability": "nonpayable",
					"type": "function"
				},
				{
					"stateMutability": "payable",
					"type": "receive"
				}
			],
			"devdoc": {
				"kind": "dev",
				"methods": {},
				"version": 1
			},
			"evm": {
				"assembly": "    /* \"contracts/DemoWallet.sol\":34:624  contract DemoWallet{... */\n  mstore(0x40, 0x80)\n    /* \"contracts/DemoWallet.sol\":197:246  constructor(){... */\n  callvalue\n  dup1\n  iszero\n  tag_1\n  jumpi\n  0x00\n  dup1\n  revert\ntag_1:\n  pop\n    /* \"contracts/DemoWallet.sol\":229:239  msg.sender */\n  caller\n    /* \"contracts/DemoWallet.sol\":221:226  owner */\n  0x00\n  dup1\n    /* \"contracts/DemoWallet.sol\":221:239  owner = msg.sender */\n  0x0100\n  exp\n  dup2\n  sload\n  dup2\n  0xffffffffffffffffffffffffffffffffffffffff\n  mul\n  not\n  and\n  swap1\n  dup4\n  0xffffffffffffffffffffffffffffffffffffffff\n  and\n  mul\n  or\n  swap1\n  sstore\n  pop\n    /* \"contracts/DemoWallet.sol\":34:624  contract DemoWallet{... */\n  dataSize(sub_0)\n  dup1\n  dataOffset(sub_0)\n  0x00\n  codecopy\n  0x00\n  return\nstop\n\nsub_0: assembly {\n        /* \"contracts/DemoWallet.sol\":34:624  contract DemoWallet{... */\n      mstore(0x40, 0x80)\n      jumpi(tag_1, lt(calldatasize, 0x04))\n      shr(0xe0, calldataload(0x00))\n      dup1\n      0x14174f33\n      eq\n      tag_3\n      jumpi\n      dup1\n      0x8da5cb5b\n      eq\n      tag_4\n      jumpi\n      dup1\n      0x9e1a00aa\n      eq\n      tag_5\n      jumpi\n      jump(tag_2)\n    tag_1:\n      jumpi(tag_2, calldatasize)\n      stop\n    tag_2:\n      0x00\n      dup1\n      revert\n        /* \"contracts/DemoWallet.sol\":286:474  function withDraw(uint256 amount) external{... */\n    tag_3:\n      callvalue\n      dup1\n      iszero\n      tag_8\n      jumpi\n      0x00\n      dup1\n      revert\n    tag_8:\n      pop\n      tag_9\n      0x04\n      dup1\n      calldatasize\n      sub\n      dup2\n      add\n      swap1\n      tag_10\n      swap2\n      swap1\n      tag_11\n      jump\t// in\n    tag_10:\n      tag_12\n      jump\t// in\n    tag_9:\n      stop\n        /* \"contracts/DemoWallet.sol\":59:79  address public owner */\n    tag_4:\n      callvalue\n      dup1\n      iszero\n      tag_13\n      jumpi\n      0x00\n      dup1\n      revert\n    tag_13:\n      pop\n      tag_14\n      tag_15\n      jump\t// in\n    tag_14:\n      mload(0x40)\n      tag_16\n      swap2\n      swap1\n      tag_17\n      jump\t// in\n    tag_16:\n      mload(0x40)\n      dup1\n      swap2\n      sub\n      swap1\n      return\n        /* \"contracts/DemoWallet.sol\":480:622  function sendTo(address payable _to, uint amount) external{... */\n    tag_5:\n      callvalue\n      dup1\n      iszero\n      tag_18\n      jumpi\n      0x00\n      dup1\n      revert\n    tag_18:\n      pop\n      tag_19\n      0x04\n      dup1\n      calldatasize\n      sub\n      dup2\n      add\n      swap1\n      tag_20\n      swap2\n      swap1\n      tag_21\n      jump\t// in\n    tag_20:\n      tag_22\n      jump\t// in\n    tag_19:\n      stop\n        /* \"contracts/DemoWallet.sol\":286:474  function withDraw(uint256 amount) external{... */\n    tag_12:\n        /* \"contracts/DemoWallet.sol\":360:365  owner */\n      0x00\n      dup1\n      sload\n      swap1\n      0x0100\n      exp\n      swap1\n      div\n      0xffffffffffffffffffffffffffffffffffffffff\n      and\n        /* \"contracts/DemoWallet.sol\":346:365  msg.sender == owner */\n      0xffffffffffffffffffffffffffffffffffffffff\n      and\n        /* \"contracts/DemoWallet.sol\":346:356  msg.sender */\n      caller\n        /* \"contracts/DemoWallet.sol\":346:365  msg.sender == owner */\n      0xffffffffffffffffffffffffffffffffffffffff\n      and\n      eq\n        /* \"contracts/DemoWallet.sol\":338:382  require(msg.sender == owner,\"Unauthorized!\") */\n      tag_24\n      jumpi\n      mload(0x40)\n      0x08c379a000000000000000000000000000000000000000000000000000000000\n      dup2\n      mstore\n      0x04\n      add\n      tag_25\n      swap1\n      tag_26\n      jump\t// in\n    tag_25:\n      mload(0x40)\n      dup1\n      swap2\n      sub\n      swap1\n      revert\n    tag_24:\n        /* \"contracts/DemoWallet.sol\":400:410  msg.sender */\n      caller\n        /* \"contracts/DemoWallet.sol\":392:420  payable(msg.sender).transfer */\n      0xffffffffffffffffffffffffffffffffffffffff\n      and\n        /* \"contracts/DemoWallet.sol\":392:428  payable(msg.sender).transfer(amount) */\n      0x08fc\n        /* \"contracts/DemoWallet.sol\":421:427  amount */\n      dup3\n        /* \"contracts/DemoWallet.sol\":392:428  payable(msg.sender).transfer(amount) */\n      swap1\n      dup2\n      iszero\n      mul\n      swap1\n      mload(0x40)\n      0x00\n      mload(0x40)\n      dup1\n      dup4\n      sub\n      dup2\n      dup6\n      dup9\n      dup9\n      call\n      swap4\n      pop\n      pop\n      pop\n      pop\n      iszero\n      dup1\n      iszero\n      tag_28\n      jumpi\n      returndatasize\n      0x00\n      dup1\n      returndatacopy\n      revert(0x00, returndatasize)\n    tag_28:\n      pop\n        /* \"contracts/DemoWallet.sol\":443:467  Log(\"Withdrawn\", amount) */\n      0xdd970dd9b5bfe707922155b058a407655cb18288b807e2216442bca8ad83d6b5\n        /* \"contracts/DemoWallet.sol\":460:466  amount */\n      dup2\n        /* \"contracts/DemoWallet.sol\":443:467  Log(\"Withdrawn\", amount) */\n      mload(0x40)\n      tag_29\n      swap2\n      swap1\n      tag_30\n      jump\t// in\n    tag_29:\n      mload(0x40)\n      dup1\n      swap2\n      sub\n      swap1\n      log1\n        /* \"contracts/DemoWallet.sol\":286:474  function withDraw(uint256 amount) external{... */\n      pop\n      jump\t// out\n        /* \"contracts/DemoWallet.sol\":59:79  address public owner */\n    tag_15:\n      0x00\n      dup1\n      sload\n      swap1\n      0x0100\n      exp\n      swap1\n      div\n      0xffffffffffffffffffffffffffffffffffffffff\n      and\n      dup2\n      jump\t// out\n        /* \"contracts/DemoWallet.sol\":480:622  function sendTo(address payable _to, uint amount) external{... */\n    tag_22:\n        /* \"contracts/DemoWallet.sol\":548:551  _to */\n      dup2\n        /* \"contracts/DemoWallet.sol\":548:560  _to.transfer */\n      0xffffffffffffffffffffffffffffffffffffffff\n      and\n        /* \"contracts/DemoWallet.sol\":548:568  _to.transfer(amount) */\n      0x08fc\n        /* \"contracts/DemoWallet.sol\":561:567  amount */\n      dup3\n        /* \"contracts/DemoWallet.sol\":548:568  _to.transfer(amount) */\n      swap1\n      dup2\n      iszero\n      mul\n      swap1\n      mload(0x40)\n      0x00\n      mload(0x40)\n      dup1\n      dup4\n      sub\n      dup2\n      dup6\n      dup9\n      dup9\n      call\n      swap4\n      pop\n      pop\n      pop\n      pop\n      iszero\n      dup1\n      iszero\n      tag_33\n      jumpi\n      returndatasize\n      0x00\n      dup1\n      returndatacopy\n      revert(0x00, returndatasize)\n    tag_33:\n      pop\n        /* \"contracts/DemoWallet.sol\":583:615  LogSend(\"Sent coin!\",_to,amount) */\n      0x8caea9cf862f201cd6aad1c9d93d73d2c378891d170319b5ce0f362f7ad860fc\n        /* \"contracts/DemoWallet.sol\":604:607  _to */\n      dup3\n        /* \"contracts/DemoWallet.sol\":608:614  amount */\n      dup3\n        /* \"contracts/DemoWallet.sol\":583:615  LogSend(\"Sent coin!\",_to,amount) */\n      mload(0x40)\n      tag_34\n      swap3\n      swap2\n      swap1\n      tag_35\n      jump\t// in\n    tag_34:\n      mload(0x40)\n      dup1\n      swap2\n      sub\n      swap1\n      log1\n        /* \"contracts/DemoWallet.sol\":480:622  function sendTo(address payable _to, uint amount) external{... */\n      pop\n      pop\n      jump\t// out\n        /* \"#utility.yul\":7:162   */\n    tag_37:\n        /* \"#utility.yul\":61:66   */\n      0x00\n        /* \"#utility.yul\":99:105   */\n      dup2\n        /* \"#utility.yul\":86:106   */\n      calldataload\n        /* \"#utility.yul\":77:106   */\n      swap1\n      pop\n        /* \"#utility.yul\":115:156   */\n      tag_39\n        /* \"#utility.yul\":150:155   */\n      dup2\n        /* \"#utility.yul\":115:156   */\n      tag_40\n      jump\t// in\n    tag_39:\n        /* \"#utility.yul\":7:162   */\n      swap3\n      swap2\n      pop\n      pop\n      jump\t// out\n        /* \"#utility.yul\":168:307   */\n    tag_41:\n        /* \"#utility.yul\":214:219   */\n      0x00\n        /* \"#utility.yul\":252:258   */\n      dup2\n        /* \"#utility.yul\":239:259   */\n      calldataload\n        /* \"#utility.yul\":230:259   */\n      swap1\n      pop\n        /* \"#utility.yul\":268:301   */\n      tag_43\n        /* \"#utility.yul\":295:300   */\n      dup2\n        /* \"#utility.yul\":268:301   */\n      tag_44\n      jump\t// in\n    tag_43:\n        /* \"#utility.yul\":168:307   */\n      swap3\n      swap2\n      pop\n      pop\n      jump\t// out\n        /* \"#utility.yul\":313:803   */\n    tag_21:\n        /* \"#utility.yul\":389:395   */\n      0x00\n        /* \"#utility.yul\":397:403   */\n      dup1\n        /* \"#utility.yul\":446:448   */\n      0x40\n        /* \"#utility.yul\":434:443   */\n      dup4\n        /* \"#utility.yul\":425:432   */\n      dup6\n        /* \"#utility.yul\":421:444   */\n      sub\n        /* \"#utility.yul\":417:449   */\n      slt\n        /* \"#utility.yul\":414:533   */\n      iszero\n      tag_46\n      jumpi\n        /* \"#utility.yul\":452:531   */\n      tag_47\n      tag_48\n      jump\t// in\n    tag_47:\n        /* \"#utility.yul\":414:533   */\n    tag_46:\n        /* \"#utility.yul\":572:573   */\n      0x00\n        /* \"#utility.yul\":597:658   */\n      tag_49\n        /* \"#utility.yul\":650:657   */\n      dup6\n        /* \"#utility.yul\":641:647   */\n      dup3\n        /* \"#utility.yul\":630:639   */\n      dup7\n        /* \"#utility.yul\":626:648   */\n      add\n        /* \"#utility.yul\":597:658   */\n      tag_37\n      jump\t// in\n    tag_49:\n        /* \"#utility.yul\":587:658   */\n      swap3\n      pop\n        /* \"#utility.yul\":543:668   */\n      pop\n        /* \"#utility.yul\":707:709   */\n      0x20\n        /* \"#utility.yul\":733:786   */\n      tag_50\n        /* \"#utility.yul\":778:785   */\n      dup6\n        /* \"#utility.yul\":769:775   */\n      dup3\n        /* \"#utility.yul\":758:767   */\n      dup7\n        /* \"#utility.yul\":754:776   */\n      add\n        /* \"#utility.yul\":733:786   */\n      tag_41\n      jump\t// in\n    tag_50:\n        /* \"#utility.yul\":723:786   */\n      swap2\n      pop\n        /* \"#utility.yul\":678:796   */\n      pop\n        /* \"#utility.yul\":313:803   */\n      swap3\n      pop\n      swap3\n      swap1\n      pop\n      jump\t// out\n        /* \"#utility.yul\":809:1138   */\n    tag_11:\n        /* \"#utility.yul\":868:874   */\n      0x00\n        /* \"#utility.yul\":917:919   */\n      0x20\n        /* \"#utility.yul\":905:914   */\n      dup3\n        /* \"#utility.yul\":896:903   */\n      dup5\n        /* \"#utility.yul\":892:915   */\n      sub\n        /* \"#utility.yul\":888:920   */\n      slt\n        /* \"#utility.yul\":885:1004   */\n      iszero\n      tag_52\n      jumpi\n        /* \"#utility.yul\":923:1002   */\n      tag_53\n      tag_48\n      jump\t// in\n    tag_53:\n        /* \"#utility.yul\":885:1004   */\n    tag_52:\n        /* \"#utility.yul\":1043:1044   */\n      0x00\n        /* \"#utility.yul\":1068:1121   */\n      tag_54\n        /* \"#utility.yul\":1113:1120   */\n      dup5\n        /* \"#utility.yul\":1104:1110   */\n      dup3\n        /* \"#utility.yul\":1093:1102   */\n      dup6\n        /* \"#utility.yul\":1089:1111   */\n      add\n        /* \"#utility.yul\":1068:1121   */\n      tag_41\n      jump\t// in\n    tag_54:\n        /* \"#utility.yul\":1058:1121   */\n      swap2\n      pop\n        /* \"#utility.yul\":1014:1131   */\n      pop\n        /* \"#utility.yul\":809:1138   */\n      swap3\n      swap2\n      pop\n      pop\n      jump\t// out\n        /* \"#utility.yul\":1144:1291   */\n    tag_55:\n        /* \"#utility.yul\":1239:1284   */\n      tag_57\n        /* \"#utility.yul\":1278:1283   */\n      dup2\n        /* \"#utility.yul\":1239:1284   */\n      tag_58\n      jump\t// in\n    tag_57:\n        /* \"#utility.yul\":1234:1237   */\n      dup3\n        /* \"#utility.yul\":1227:1285   */\n      mstore\n        /* \"#utility.yul\":1144:1291   */\n      pop\n      pop\n      jump\t// out\n        /* \"#utility.yul\":1297:1415   */\n    tag_59:\n        /* \"#utility.yul\":1384:1408   */\n      tag_61\n        /* \"#utility.yul\":1402:1407   */\n      dup2\n        /* \"#utility.yul\":1384:1408   */\n      tag_62\n      jump\t// in\n    tag_61:\n        /* \"#utility.yul\":1379:1382   */\n      dup3\n        /* \"#utility.yul\":1372:1409   */\n      mstore\n        /* \"#utility.yul\":1297:1415   */\n      pop\n      pop\n      jump\t// out\n        /* \"#utility.yul\":1421:1786   */\n    tag_63:\n        /* \"#utility.yul\":1563:1566   */\n      0x00\n        /* \"#utility.yul\":1584:1650   */\n      tag_65\n        /* \"#utility.yul\":1648:1649   */\n      0x09\n        /* \"#utility.yul\":1643:1646   */\n      dup4\n        /* \"#utility.yul\":1584:1650   */\n      tag_66\n      jump\t// in\n    tag_65:\n        /* \"#utility.yul\":1577:1650   */\n      swap2\n      pop\n        /* \"#utility.yul\":1659:1752   */\n      tag_67\n        /* \"#utility.yul\":1748:1751   */\n      dup3\n        /* \"#utility.yul\":1659:1752   */\n      tag_68\n      jump\t// in\n    tag_67:\n        /* \"#utility.yul\":1777:1779   */\n      0x20\n        /* \"#utility.yul\":1772:1775   */\n      dup3\n        /* \"#utility.yul\":1768:1780   */\n      add\n        /* \"#utility.yul\":1761:1780   */\n      swap1\n      pop\n        /* \"#utility.yul\":1421:1786   */\n      swap2\n      swap1\n      pop\n      jump\t// out\n        /* \"#utility.yul\":1792:2158   */\n    tag_69:\n        /* \"#utility.yul\":1934:1937   */\n      0x00\n        /* \"#utility.yul\":1955:2022   */\n      tag_71\n        /* \"#utility.yul\":2019:2021   */\n      0x0a\n        /* \"#utility.yul\":2014:2017   */\n      dup4\n        /* \"#utility.yul\":1955:2022   */\n      tag_66\n      jump\t// in\n    tag_71:\n        /* \"#utility.yul\":1948:2022   */\n      swap2\n      pop\n        /* \"#utility.yul\":2031:2124   */\n      tag_72\n        /* \"#utility.yul\":2120:2123   */\n      dup3\n        /* \"#utility.yul\":2031:2124   */\n      tag_73\n      jump\t// in\n    tag_72:\n        /* \"#utility.yul\":2149:2151   */\n      0x20\n        /* \"#utility.yul\":2144:2147   */\n      dup3\n        /* \"#utility.yul\":2140:2152   */\n      add\n        /* \"#utility.yul\":2133:2152   */\n      swap1\n      pop\n        /* \"#utility.yul\":1792:2158   */\n      swap2\n      swap1\n      pop\n      jump\t// out\n        /* \"#utility.yul\":2164:2530   */\n    tag_74:\n        /* \"#utility.yul\":2306:2309   */\n      0x00\n        /* \"#utility.yul\":2327:2394   */\n      tag_76\n        /* \"#utility.yul\":2391:2393   */\n      0x0d\n        /* \"#utility.yul\":2386:2389   */\n      dup4\n        /* \"#utility.yul\":2327:2394   */\n      tag_66\n      jump\t// in\n    tag_76:\n        /* \"#utility.yul\":2320:2394   */\n      swap2\n      pop\n        /* \"#utility.yul\":2403:2496   */\n      tag_77\n        /* \"#utility.yul\":2492:2495   */\n      dup3\n        /* \"#utility.yul\":2403:2496   */\n      tag_78\n      jump\t// in\n    tag_77:\n        /* \"#utility.yul\":2521:2523   */\n      0x20\n        /* \"#utility.yul\":2516:2519   */\n      dup3\n        /* \"#utility.yul\":2512:2524   */\n      add\n        /* \"#utility.yul\":2505:2524   */\n      swap1\n      pop\n        /* \"#utility.yul\":2164:2530   */\n      swap2\n      swap1\n      pop\n      jump\t// out\n        /* \"#utility.yul\":2536:2654   */\n    tag_79:\n        /* \"#utility.yul\":2623:2647   */\n      tag_81\n        /* \"#utility.yul\":2641:2646   */\n      dup2\n        /* \"#utility.yul\":2623:2647   */\n      tag_82\n      jump\t// in\n    tag_81:\n        /* \"#utility.yul\":2618:2621   */\n      dup3\n        /* \"#utility.yul\":2611:2648   */\n      mstore\n        /* \"#utility.yul\":2536:2654   */\n      pop\n      pop\n      jump\t// out\n        /* \"#utility.yul\":2660:2882   */\n    tag_17:\n        /* \"#utility.yul\":2753:2757   */\n      0x00\n        /* \"#utility.yul\":2791:2793   */\n      0x20\n        /* \"#utility.yul\":2780:2789   */\n      dup3\n        /* \"#utility.yul\":2776:2794   */\n      add\n        /* \"#utility.yul\":2768:2794   */\n      swap1\n      pop\n        /* \"#utility.yul\":2804:2875   */\n      tag_84\n        /* \"#utility.yul\":2872:2873   */\n      0x00\n        /* \"#utility.yul\":2861:2870   */\n      dup4\n        /* \"#utility.yul\":2857:2874   */\n      add\n        /* \"#utility.yul\":2848:2854   */\n      dup5\n        /* \"#utility.yul\":2804:2875   */\n      tag_59\n      jump\t// in\n    tag_84:\n        /* \"#utility.yul\":2660:2882   */\n      swap3\n      swap2\n      pop\n      pop\n      jump\t// out\n        /* \"#utility.yul\":2888:3417   */\n    tag_30:\n        /* \"#utility.yul\":3082:3086   */\n      0x00\n        /* \"#utility.yul\":3120:3122   */\n      0x40\n        /* \"#utility.yul\":3109:3118   */\n      dup3\n        /* \"#utility.yul\":3105:3123   */\n      add\n        /* \"#utility.yul\":3097:3123   */\n      swap1\n      pop\n        /* \"#utility.yul\":3169:3178   */\n      dup2\n        /* \"#utility.yul\":3163:3167   */\n      dup2\n        /* \"#utility.yul\":3159:3179   */\n      sub\n        /* \"#utility.yul\":3155:3156   */\n      0x00\n        /* \"#utility.yul\":3144:3153   */\n      dup4\n        /* \"#utility.yul\":3140:3157   */\n      add\n        /* \"#utility.yul\":3133:3180   */\n      mstore\n        /* \"#utility.yul\":3197:3328   */\n      tag_86\n        /* \"#utility.yul\":3323:3327   */\n      dup2\n        /* \"#utility.yul\":3197:3328   */\n      tag_63\n      jump\t// in\n    tag_86:\n        /* \"#utility.yul\":3189:3328   */\n      swap1\n      pop\n        /* \"#utility.yul\":3338:3410   */\n      tag_87\n        /* \"#utility.yul\":3406:3408   */\n      0x20\n        /* \"#utility.yul\":3395:3404   */\n      dup4\n        /* \"#utility.yul\":3391:3409   */\n      add\n        /* \"#utility.yul\":3382:3388   */\n      dup5\n        /* \"#utility.yul\":3338:3410   */\n      tag_79\n      jump\t// in\n    tag_87:\n        /* \"#utility.yul\":2888:3417   */\n      swap3\n      swap2\n      pop\n      pop\n      jump\t// out\n        /* \"#utility.yul\":3423:4078   */\n    tag_35:\n        /* \"#utility.yul\":3653:3657   */\n      0x00\n        /* \"#utility.yul\":3691:3693   */\n      0x60\n        /* \"#utility.yul\":3680:3689   */\n      dup3\n        /* \"#utility.yul\":3676:3694   */\n      add\n        /* \"#utility.yul\":3668:3694   */\n      swap1\n      pop\n        /* \"#utility.yul\":3740:3749   */\n      dup2\n        /* \"#utility.yul\":3734:3738   */\n      dup2\n        /* \"#utility.yul\":3730:3750   */\n      sub\n        /* \"#utility.yul\":3726:3727   */\n      0x00\n        /* \"#utility.yul\":3715:3724   */\n      dup4\n        /* \"#utility.yul\":3711:3728   */\n      add\n        /* \"#utility.yul\":3704:3751   */\n      mstore\n        /* \"#utility.yul\":3768:3899   */\n      tag_89\n        /* \"#utility.yul\":3894:3898   */\n      dup2\n        /* \"#utility.yul\":3768:3899   */\n      tag_69\n      jump\t// in\n    tag_89:\n        /* \"#utility.yul\":3760:3899   */\n      swap1\n      pop\n        /* \"#utility.yul\":3909:3989   */\n      tag_90\n        /* \"#utility.yul\":3985:3987   */\n      0x20\n        /* \"#utility.yul\":3974:3983   */\n      dup4\n        /* \"#utility.yul\":3970:3988   */\n      add\n        /* \"#utility.yul\":3961:3967   */\n      dup6\n        /* \"#utility.yul\":3909:3989   */\n      tag_55\n      jump\t// in\n    tag_90:\n        /* \"#utility.yul\":3999:4071   */\n      tag_91\n        /* \"#utility.yul\":4067:4069   */\n      0x40\n        /* \"#utility.yul\":4056:4065   */\n      dup4\n        /* \"#utility.yul\":4052:4070   */\n      add\n        /* \"#utility.yul\":4043:4049   */\n      dup5\n        /* \"#utility.yul\":3999:4071   */\n      tag_79\n      jump\t// in\n    tag_91:\n        /* \"#utility.yul\":3423:4078   */\n      swap4\n      swap3\n      pop\n      pop\n      pop\n      jump\t// out\n        /* \"#utility.yul\":4084:4503   */\n    tag_26:\n        /* \"#utility.yul\":4250:4254   */\n      0x00\n        /* \"#utility.yul\":4288:4290   */\n      0x20\n        /* \"#utility.yul\":4277:4286   */\n      dup3\n        /* \"#utility.yul\":4273:4291   */\n      add\n        /* \"#utility.yul\":4265:4291   */\n      swap1\n      pop\n        /* \"#utility.yul\":4337:4346   */\n      dup2\n        /* \"#utility.yul\":4331:4335   */\n      dup2\n        /* \"#utility.yul\":4327:4347   */\n      sub\n        /* \"#utility.yul\":4323:4324   */\n      0x00\n        /* \"#utility.yul\":4312:4321   */\n      dup4\n        /* \"#utility.yul\":4308:4325   */\n      add\n        /* \"#utility.yul\":4301:4348   */\n      mstore\n        /* \"#utility.yul\":4365:4496   */\n      tag_93\n        /* \"#utility.yul\":4491:4495   */\n      dup2\n        /* \"#utility.yul\":4365:4496   */\n      tag_74\n      jump\t// in\n    tag_93:\n        /* \"#utility.yul\":4357:4496   */\n      swap1\n      pop\n        /* \"#utility.yul\":4084:4503   */\n      swap2\n      swap1\n      pop\n      jump\t// out\n        /* \"#utility.yul\":4590:4759   */\n    tag_66:\n        /* \"#utility.yul\":4674:4685   */\n      0x00\n        /* \"#utility.yul\":4708:4714   */\n      dup3\n        /* \"#utility.yul\":4703:4706   */\n      dup3\n        /* \"#utility.yul\":4696:4715   */\n      mstore\n        /* \"#utility.yul\":4748:4752   */\n      0x20\n        /* \"#utility.yul\":4743:4746   */\n      dup3\n        /* \"#utility.yul\":4739:4753   */\n      add\n        /* \"#utility.yul\":4724:4753   */\n      swap1\n      pop\n        /* \"#utility.yul\":4590:4759   */\n      swap3\n      swap2\n      pop\n      pop\n      jump\t// out\n        /* \"#utility.yul\":4765:4861   */\n    tag_62:\n        /* \"#utility.yul\":4802:4809   */\n      0x00\n        /* \"#utility.yul\":4831:4855   */\n      tag_98\n        /* \"#utility.yul\":4849:4854   */\n      dup3\n        /* \"#utility.yul\":4831:4855   */\n      tag_99\n      jump\t// in\n    tag_98:\n        /* \"#utility.yul\":4820:4855   */\n      swap1\n      pop\n        /* \"#utility.yul\":4765:4861   */\n      swap2\n      swap1\n      pop\n      jump\t// out\n        /* \"#utility.yul\":4867:4971   */\n    tag_100:\n        /* \"#utility.yul\":4912:4919   */\n      0x00\n        /* \"#utility.yul\":4941:4965   */\n      tag_102\n        /* \"#utility.yul\":4959:4964   */\n      dup3\n        /* \"#utility.yul\":4941:4965   */\n      tag_99\n      jump\t// in\n    tag_102:\n        /* \"#utility.yul\":4930:4965   */\n      swap1\n      pop\n        /* \"#utility.yul\":4867:4971   */\n      swap2\n      swap1\n      pop\n      jump\t// out\n        /* \"#utility.yul\":4977:5103   */\n    tag_99:\n        /* \"#utility.yul\":5014:5021   */\n      0x00\n        /* \"#utility.yul\":5054:5096   */\n      0xffffffffffffffffffffffffffffffffffffffff\n        /* \"#utility.yul\":5047:5052   */\n      dup3\n        /* \"#utility.yul\":5043:5097   */\n      and\n        /* \"#utility.yul\":5032:5097   */\n      swap1\n      pop\n        /* \"#utility.yul\":4977:5103   */\n      swap2\n      swap1\n      pop\n      jump\t// out\n        /* \"#utility.yul\":5109:5186   */\n    tag_82:\n        /* \"#utility.yul\":5146:5153   */\n      0x00\n        /* \"#utility.yul\":5175:5180   */\n      dup2\n        /* \"#utility.yul\":5164:5180   */\n      swap1\n      pop\n        /* \"#utility.yul\":5109:5186   */\n      swap2\n      swap1\n      pop\n      jump\t// out\n        /* \"#utility.yul\":5192:5326   */\n    tag_58:\n        /* \"#utility.yul\":5250:5259   */\n      0x00\n        /* \"#utility.yul\":5283:5320   */\n      tag_106\n        /* \"#utility.yul\":5314:5319   */\n      dup3\n        /* \"#utility.yul\":5283:5320   */\n      tag_107\n      jump\t// in\n    tag_106:\n        /* \"#utility.yul\":5270:5320   */\n      swap1\n      pop\n        /* \"#utility.yul\":5192:5326   */\n      swap2\n      swap1\n      pop\n      jump\t// out\n        /* \"#utility.yul\":5332:5458   */\n    tag_107:\n        /* \"#utility.yul\":5382:5391   */\n      0x00\n        /* \"#utility.yul\":5415:5452   */\n      tag_109\n        /* \"#utility.yul\":5446:5451   */\n      dup3\n        /* \"#utility.yul\":5415:5452   */\n      tag_110\n      jump\t// in\n    tag_109:\n        /* \"#utility.yul\":5402:5452   */\n      swap1\n      pop\n        /* \"#utility.yul\":5332:5458   */\n      swap2\n      swap1\n      pop\n      jump\t// out\n        /* \"#utility.yul\":5464:5577   */\n    tag_110:\n        /* \"#utility.yul\":5514:5523   */\n      0x00\n        /* \"#utility.yul\":5547:5571   */\n      tag_112\n        /* \"#utility.yul\":5565:5570   */\n      dup3\n        /* \"#utility.yul\":5547:5571   */\n      tag_99\n      jump\t// in\n    tag_112:\n        /* \"#utility.yul\":5534:5571   */\n      swap1\n      pop\n        /* \"#utility.yul\":5464:5577   */\n      swap2\n      swap1\n      pop\n      jump\t// out\n        /* \"#utility.yul\":5706:5823   */\n    tag_48:\n        /* \"#utility.yul\":5815:5816   */\n      0x00\n        /* \"#utility.yul\":5812:5813   */\n      dup1\n        /* \"#utility.yul\":5805:5817   */\n      revert\n        /* \"#utility.yul\":5829:5988   */\n    tag_68:\n        /* \"#utility.yul\":5969:5980   */\n      0x57697468647261776e0000000000000000000000000000000000000000000000\n        /* \"#utility.yul\":5965:5966   */\n      0x00\n        /* \"#utility.yul\":5957:5963   */\n      dup3\n        /* \"#utility.yul\":5953:5967   */\n      add\n        /* \"#utility.yul\":5946:5981   */\n      mstore\n        /* \"#utility.yul\":5829:5988   */\n      pop\n      jump\t// out\n        /* \"#utility.yul\":5994:6154   */\n    tag_73:\n        /* \"#utility.yul\":6134:6146   */\n      0x53656e7420636f696e2100000000000000000000000000000000000000000000\n        /* \"#utility.yul\":6130:6131   */\n      0x00\n        /* \"#utility.yul\":6122:6128   */\n      dup3\n        /* \"#utility.yul\":6118:6132   */\n      add\n        /* \"#utility.yul\":6111:6147   */\n      mstore\n        /* \"#utility.yul\":5994:6154   */\n      pop\n      jump\t// out\n        /* \"#utility.yul\":6160:6323   */\n    tag_78:\n        /* \"#utility.yul\":6300:6315   */\n      0x556e617574686f72697a65642100000000000000000000000000000000000000\n        /* \"#utility.yul\":6296:6297   */\n      0x00\n        /* \"#utility.yul\":6288:6294   */\n      dup3\n        /* \"#utility.yul\":6284:6298   */\n      add\n        /* \"#utility.yul\":6277:6316   */\n      mstore\n        /* \"#utility.yul\":6160:6323   */\n      pop\n      jump\t// out\n        /* \"#utility.yul\":6329:6467   */\n    tag_40:\n        /* \"#utility.yul\":6410:6442   */\n      tag_120\n        /* \"#utility.yul\":6436:6441   */\n      dup2\n        /* \"#utility.yul\":6410:6442   */\n      tag_100\n      jump\t// in\n    tag_120:\n        /* \"#utility.yul\":6403:6408   */\n      dup2\n        /* \"#utility.yul\":6400:6443   */\n      eq\n        /* \"#utility.yul\":6390:6461   */\n      tag_121\n      jumpi\n        /* \"#utility.yul\":6457:6458   */\n      0x00\n        /* \"#utility.yul\":6454:6455   */\n      dup1\n        /* \"#utility.yul\":6447:6459   */\n      revert\n        /* \"#utility.yul\":6390:6461   */\n    tag_121:\n        /* \"#utility.yul\":6329:6467   */\n      pop\n      jump\t// out\n        /* \"#utility.yul\":6473:6595   */\n    tag_44:\n        /* \"#utility.yul\":6546:6570   */\n      tag_123\n        /* \"#utility.yul\":6564:6569   */\n      dup2\n        /* \"#utility.yul\":6546:6570   */\n      tag_82\n      jump\t// in\n    tag_123:\n        /* \"#utility.yul\":6539:6544   */\n      dup2\n        /* \"#utility.yul\":6536:6571   */\n      eq\n        /* \"#utility.yul\":6526:6589   */\n      tag_124\n      jumpi\n        /* \"#utility.yul\":6585:6586   */\n      0x00\n        /* \"#utility.yul\":6582:6583   */\n      dup1\n        /* \"#utility.yul\":6575:6587   */\n      revert\n        /* \"#utility.yul\":6526:6589   */\n    tag_124:\n        /* \"#utility.yul\":6473:6595   */\n      pop\n      jump\t// out\n\n    auxdata: 0xa2646970667358221220e72cb2bff8ecd764c805a29fd190bd14142fed483ee158bd2c490f84d055bd0964736f6c63430008070033\n}\n",
				"bytecode": {
					"linkReferences": {},
					"object": "608060405234801561001057600080fd5b50336000806101000a81548173ffffffffffffffffffffffffffffffffffffffff021916908373ffffffffffffffffffffffffffffffffffffffff1602179055506105c3806100606000396000f3fe6080604052600436106100385760003560e01c806314174f33146100445780638da5cb5b1461006d5780639e1a00aa146100985761003f565b3661003f57005b600080fd5b34801561005057600080fd5b5061006b600480360381019061006691906102e2565b6100c1565b005b34801561007957600080fd5b506100826101d0565b60405161008f91906103a5565b60405180910390f35b3480156100a457600080fd5b506100bf60048036038101906100ba91906102a2565b6101f4565b005b60008054906101000a900473ffffffffffffffffffffffffffffffffffffffff1673ffffffffffffffffffffffffffffffffffffffff163373ffffffffffffffffffffffffffffffffffffffff161461014f576040517f08c379a00000000000000000000000000000000000000000000000000000000081526004016101469061042a565b60405180910390fd5b3373ffffffffffffffffffffffffffffffffffffffff166108fc829081150290604051600060405180830381858888f19350505050158015610195573d6000803e3d6000fd5b507fdd970dd9b5bfe707922155b058a407655cb18288b807e2216442bca8ad83d6b5816040516101c591906103c0565b60405180910390a150565b60008054906101000a900473ffffffffffffffffffffffffffffffffffffffff1681565b8173ffffffffffffffffffffffffffffffffffffffff166108fc829081150290604051600060405180830381858888f1935050505015801561023a573d6000803e3d6000fd5b507f8caea9cf862f201cd6aad1c9d93d73d2c378891d170319b5ce0f362f7ad860fc828260405161026c9291906103ee565b60405180910390a15050565b6000813590506102878161055f565b92915050565b60008135905061029c81610576565b92915050565b600080604083850312156102b9576102b86104df565b5b60006102c785828601610278565b92505060206102d88582860161028d565b9150509250929050565b6000602082840312156102f8576102f76104df565b5b60006103068482850161028d565b91505092915050565b610318816104a9565b82525050565b6103278161045b565b82525050565b600061033a60098361044a565b9150610345826104e4565b602082019050919050565b600061035d600a8361044a565b91506103688261050d565b602082019050919050565b6000610380600d8361044a565b915061038b82610536565b602082019050919050565b61039f8161049f565b82525050565b60006020820190506103ba600083018461031e565b92915050565b600060408201905081810360008301526103d98161032d565b90506103e86020830184610396565b92915050565b6000606082019050818103600083015261040781610350565b9050610416602083018561030f565b6104236040830184610396565b9392505050565b6000602082019050818103600083015261044381610373565b9050919050565b600082825260208201905092915050565b60006104668261047f565b9050919050565b60006104788261047f565b9050919050565b600073ffffffffffffffffffffffffffffffffffffffff82169050919050565b6000819050919050565b60006104b4826104bb565b9050919050565b60006104c6826104cd565b9050919050565b60006104d88261047f565b9050919050565b600080fd5b7f57697468647261776e0000000000000000000000000000000000000000000000600082015250565b7f53656e7420636f696e2100000000000000000000000000000000000000000000600082015250565b7f556e617574686f72697a65642100000000000000000000000000000000000000600082015250565b6105688161046d565b811461057357600080fd5b50565b61057f8161049f565b811461058a57600080fd5b5056fea2646970667358221220e72cb2bff8ecd764c805a29fd190bd14142fed483ee158bd2c490f84d055bd0964736f6c63430008070033",
					"opcodes": "PUSH1 0x80 PUSH1 0x40 MSTORE CALLVALUE DUP1 ISZERO PUSH2 0x10 JUMPI PUSH1 0x0 DUP1 REVERT JUMPDEST POP CALLER PUSH1 0x0 DUP1 PUSH2 0x100 EXP DUP2 SLOAD DUP2 PUSH20 0xFFFFFFFFFFFFFFFFFFFFFFFFFFFFFFFFFFFFFFFF MUL NOT AND SWAP1 DUP4 PUSH20 0xFFFFFFFFFFFFFFFFFFFFFFFFFFFFFFFFFFFFFFFF AND MUL OR SWAP1 SSTORE POP PUSH2 0x5C3 DUP1 PUSH2 0x60 PUSH1 0x0 CODECOPY PUSH1 0x0 RETURN INVALID PUSH1 0x80 PUSH1 0x40 MSTORE PUSH1 0x4 CALLDATASIZE LT PUSH2 0x38 JUMPI PUSH1 0x0 CALLDATALOAD PUSH1 0xE0 SHR DUP1 PUSH4 0x14174F33 EQ PUSH2 0x44 JUMPI DUP1 PUSH4 0x8DA5CB5B EQ PUSH2 0x6D JUMPI DUP1 PUSH4 0x9E1A00AA EQ PUSH2 0x98 JUMPI PUSH2 0x3F JUMP JUMPDEST CALLDATASIZE PUSH2 0x3F JUMPI STOP JUMPDEST PUSH1 0x0 DUP1 REVERT JUMPDEST CALLVALUE DUP1 ISZERO PUSH2 0x50 JUMPI PUSH1 0x0 DUP1 REVERT JUMPDEST POP PUSH2 0x6B PUSH1 0x4 DUP1 CALLDATASIZE SUB DUP2 ADD SWAP1 PUSH2 0x66 SWAP2 SWAP1 PUSH2 0x2E2 JUMP JUMPDEST PUSH2 0xC1 JUMP JUMPDEST STOP JUMPDEST CALLVALUE DUP1 ISZERO PUSH2 0x79 JUMPI PUSH1 0x0 DUP1 REVERT JUMPDEST POP PUSH2 0x82 PUSH2 0x1D0 JUMP JUMPDEST PUSH1 0x40 MLOAD PUSH2 0x8F SWAP2 SWAP1 PUSH2 0x3A5 JUMP JUMPDEST PUSH1 0x40 MLOAD DUP1 SWAP2 SUB SWAP1 RETURN JUMPDEST CALLVALUE DUP1 ISZERO PUSH2 0xA4 JUMPI PUSH1 0x0 DUP1 REVERT JUMPDEST POP PUSH2 0xBF PUSH1 0x4 DUP1 CALLDATASIZE SUB DUP2 ADD SWAP1 PUSH2 0xBA SWAP2 SWAP1 PUSH2 0x2A2 JUMP JUMPDEST PUSH2 0x1F4 JUMP JUMPDEST STOP JUMPDEST PUSH1 0x0 DUP1 SLOAD SWAP1 PUSH2 0x100 EXP SWAP1 DIV PUSH20 0xFFFFFFFFFFFFFFFFFFFFFFFFFFFFFFFFFFFFFFFF AND PUSH20 0xFFFFFFFFFFFFFFFFFFFFFFFFFFFFFFFFFFFFFFFF AND CALLER PUSH20 0xFFFFFFFFFFFFFFFFFFFFFFFFFFFFFFFFFFFFFFFF AND EQ PUSH2 0x14F JUMPI PUSH1 0x40 MLOAD PUSH32 0x8C379A000000000000000000000000000000000000000000000000000000000 DUP2 MSTORE PUSH1 0x4 ADD PUSH2 0x146 SWAP1 PUSH2 0x42A JUMP JUMPDEST PUSH1 0x40 MLOAD DUP1 SWAP2 SUB SWAP1 REVERT JUMPDEST CALLER PUSH20 0xFFFFFFFFFFFFFFFFFFFFFFFFFFFFFFFFFFFFFFFF AND PUSH2 0x8FC DUP3 SWAP1 DUP2 ISZERO MUL SWAP1 PUSH1 0x40 MLOAD PUSH1 0x0 PUSH1 0x40 MLOAD DUP1 DUP4 SUB DUP2 DUP6 DUP9 DUP9 CALL SWAP4 POP POP POP POP ISZERO DUP1 ISZERO PUSH2 0x195 JUMPI RETURNDATASIZE PUSH1 0x0 DUP1 RETURNDATACOPY RETURNDATASIZE PUSH1 0x0 REVERT JUMPDEST POP PUSH32 0xDD970DD9B5BFE707922155B058A407655CB18288B807E2216442BCA8AD83D6B5 DUP2 PUSH1 0x40 MLOAD PUSH2 0x1C5 SWAP2 SWAP1 PUSH2 0x3C0 JUMP JUMPDEST PUSH1 0x40 MLOAD DUP1 SWAP2 SUB SWAP1 LOG1 POP JUMP JUMPDEST PUSH1 0x0 DUP1 SLOAD SWAP1 PUSH2 0x100 EXP SWAP1 DIV PUSH20 0xFFFFFFFFFFFFFFFFFFFFFFFFFFFFFFFFFFFFFFFF AND DUP2 JUMP JUMPDEST DUP2 PUSH20 0xFFFFFFFFFFFFFFFFFFFFFFFFFFFFFFFFFFFFFFFF AND PUSH2 0x8FC DUP3 SWAP1 DUP2 ISZERO MUL SWAP1 PUSH1 0x40 MLOAD PUSH1 0x0 PUSH1 0x40 MLOAD DUP1 DUP4 SUB DUP2 DUP6 DUP9 DUP9 CALL SWAP4 POP POP POP POP ISZERO DUP1 ISZERO PUSH2 0x23A JUMPI RETURNDATASIZE PUSH1 0x0 DUP1 RETURNDATACOPY RETURNDATASIZE PUSH1 0x0 REVERT JUMPDEST POP PUSH32 0x8CAEA9CF862F201CD6AAD1C9D93D73D2C378891D170319B5CE0F362F7AD860FC DUP3 DUP3 PUSH1 0x40 MLOAD PUSH2 0x26C SWAP3 SWAP2 SWAP1 PUSH2 0x3EE JUMP JUMPDEST PUSH1 0x40 MLOAD DUP1 SWAP2 SUB SWAP1 LOG1 POP POP JUMP JUMPDEST PUSH1 0x0 DUP2 CALLDATALOAD SWAP1 POP PUSH2 0x287 DUP2 PUSH2 0x55F JUMP JUMPDEST SWAP3 SWAP2 POP POP JUMP JUMPDEST PUSH1 0x0 DUP2 CALLDATALOAD SWAP1 POP PUSH2 0x29C DUP2 PUSH2 0x576 JUMP JUMPDEST SWAP3 SWAP2 POP POP JUMP JUMPDEST PUSH1 0x0 DUP1 PUSH1 0x40 DUP4 DUP6 SUB SLT ISZERO PUSH2 0x2B9 JUMPI PUSH2 0x2B8 PUSH2 0x4DF JUMP JUMPDEST JUMPDEST PUSH1 0x0 PUSH2 0x2C7 DUP6 DUP3 DUP7 ADD PUSH2 0x278 JUMP JUMPDEST SWAP3 POP POP PUSH1 0x20 PUSH2 0x2D8 DUP6 DUP3 DUP7 ADD PUSH2 0x28D JUMP JUMPDEST SWAP2 POP POP SWAP3 POP SWAP3 SWAP1 POP JUMP JUMPDEST PUSH1 0x0 PUSH1 0x20 DUP3 DUP5 SUB SLT ISZERO PUSH2 0x2F8 JUMPI PUSH2 0x2F7 PUSH2 0x4DF JUMP JUMPDEST JUMPDEST PUSH1 0x0 PUSH2 0x306 DUP5 DUP3 DUP6 ADD PUSH2 0x28D JUMP JUMPDEST SWAP2 POP POP SWAP3 SWAP2 POP POP JUMP JUMPDEST PUSH2 0x318 DUP2 PUSH2 0x4A9 JUMP JUMPDEST DUP3 MSTORE POP POP JUMP JUMPDEST PUSH2 0x327 DUP2 PUSH2 0x45B JUMP JUMPDEST DUP3 MSTORE POP POP JUMP JUMPDEST PUSH1 0x0 PUSH2 0x33A PUSH1 0x9 DUP4 PUSH2 0x44A JUMP JUMPDEST SWAP2 POP PUSH2 0x345 DUP3 PUSH2 0x4E4 JUMP JUMPDEST PUSH1 0x20 DUP3 ADD SWAP1 POP SWAP2 SWAP1 POP JUMP JUMPDEST PUSH1 0x0 PUSH2 0x35D PUSH1 0xA DUP4 PUSH2 0x44A JUMP JUMPDEST SWAP2 POP PUSH2 0x368 DUP3 PUSH2 0x50D JUMP JUMPDEST PUSH1 0x20 DUP3 ADD SWAP1 POP SWAP2 SWAP1 POP JUMP JUMPDEST PUSH1 0x0 PUSH2 0x380 PUSH1 0xD DUP4 PUSH2 0x44A JUMP JUMPDEST SWAP2 POP PUSH2 0x38B DUP3 PUSH2 0x536 JUMP JUMPDEST PUSH1 0x20 DUP3 ADD SWAP1 POP SWAP2 SWAP1 POP JUMP JUMPDEST PUSH2 0x39F DUP2 PUSH2 0x49F JUMP JUMPDEST DUP3 MSTORE POP POP JUMP JUMPDEST PUSH1 0x0 PUSH1 0x20 DUP3 ADD SWAP1 POP PUSH2 0x3BA PUSH1 0x0 DUP4 ADD DUP5 PUSH2 0x31E JUMP JUMPDEST SWAP3 SWAP2 POP POP JUMP JUMPDEST PUSH1 0x0 PUSH1 0x40 DUP3 ADD SWAP1 POP DUP2 DUP2 SUB PUSH1 0x0 DUP4 ADD MSTORE PUSH2 0x3D9 DUP2 PUSH2 0x32D JUMP JUMPDEST SWAP1 POP PUSH2 0x3E8 PUSH1 0x20 DUP4 ADD DUP5 PUSH2 0x396 JUMP JUMPDEST SWAP3 SWAP2 POP POP JUMP JUMPDEST PUSH1 0x0 PUSH1 0x60 DUP3 ADD SWAP1 POP DUP2 DUP2 SUB PUSH1 0x0 DUP4 ADD MSTORE PUSH2 0x407 DUP2 PUSH2 0x350 JUMP JUMPDEST SWAP1 POP PUSH2 0x416 PUSH1 0x20 DUP4 ADD DUP6 PUSH2 0x30F JUMP JUMPDEST PUSH2 0x423 PUSH1 0x40 DUP4 ADD DUP5 PUSH2 0x396 JUMP JUMPDEST SWAP4 SWAP3 POP POP POP JUMP JUMPDEST PUSH1 0x0 PUSH1 0x20 DUP3 ADD SWAP1 POP DUP2 DUP2 SUB PUSH1 0x0 DUP4 ADD MSTORE PUSH2 0x443 DUP2 PUSH2 0x373 JUMP JUMPDEST SWAP1 POP SWAP2 SWAP1 POP JUMP JUMPDEST PUSH1 0x0 DUP3 DUP3 MSTORE PUSH1 0x20 DUP3 ADD SWAP1 POP SWAP3 SWAP2 POP POP JUMP JUMPDEST PUSH1 0x0 PUSH2 0x466 DUP3 PUSH2 0x47F JUMP JUMPDEST SWAP1 POP SWAP2 SWAP1 POP JUMP JUMPDEST PUSH1 0x0 PUSH2 0x478 DUP3 PUSH2 0x47F JUMP JUMPDEST SWAP1 POP SWAP2 SWAP1 POP JUMP JUMPDEST PUSH1 0x0 PUSH20 0xFFFFFFFFFFFFFFFFFFFFFFFFFFFFFFFFFFFFFFFF DUP3 AND SWAP1 POP SWAP2 SWAP1 POP JUMP JUMPDEST PUSH1 0x0 DUP2 SWAP1 POP SWAP2 SWAP1 POP JUMP JUMPDEST PUSH1 0x0 PUSH2 0x4B4 DUP3 PUSH2 0x4BB JUMP JUMPDEST SWAP1 POP SWAP2 SWAP1 POP JUMP JUMPDEST PUSH1 0x0 PUSH2 0x4C6 DUP3 PUSH2 0x4CD JUMP JUMPDEST SWAP1 POP SWAP2 SWAP1 POP JUMP JUMPDEST PUSH1 0x0 PUSH2 0x4D8 DUP3 PUSH2 0x47F JUMP JUMPDEST SWAP1 POP SWAP2 SWAP1 POP JUMP JUMPDEST PUSH1 0x0 DUP1 REVERT JUMPDEST PUSH32 0x57697468647261776E0000000000000000000000000000000000000000000000 PUSH1 0x0 DUP3 ADD MSTORE POP JUMP JUMPDEST PUSH32 0x53656E7420636F696E2100000000000000000000000000000000000000000000 PUSH1 0x0 DUP3 ADD MSTORE POP JUMP JUMPDEST PUSH32 0x556E617574686F72697A65642100000000000000000000000000000000000000 PUSH1 0x0 DUP3 ADD MSTORE POP JUMP JUMPDEST PUSH2 0x568 DUP2 PUSH2 0x46D JUMP JUMPDEST DUP2 EQ PUSH2 0x573 JUMPI PUSH1 0x0 DUP1 REVERT JUMPDEST POP JUMP JUMPDEST PUSH2 0x57F DUP2 PUSH2 0x49F JUMP JUMPDEST DUP2 EQ PUSH2 0x58A JUMPI PUSH1 0x0 DUP1 REVERT JUMPDEST POP JUMP INVALID LOG2 PUSH5 0x6970667358 0x22 SLT KECCAK256 0xE7 0x2C 0xB2 0xBF 0xF8 0xEC 0xD7 PUSH5 0xC805A29FD1 SWAP1 0xBD EQ EQ 0x2F 0xED BASEFEE RETURNDATACOPY 0xE1 PC 0xBD 0x2C 0x49 0xF DUP5 0xD0 SSTORE 0xBD MULMOD PUSH5 0x736F6C6343 STOP ADDMOD SMOD STOP CALLER "
				},
				"gasEstimates": {
					"creation": {
						"codeDepositCost": "295000",
						"executionCost": "24603",
						"totalCost": "319603"
					},
					"external": {
						"owner()": "2511",
						"sendTo(address,uint256)": "infinite",
						"withDraw(uint256)": "infinite"
					}
				},
				"methodIdentifiers": {
					"owner()": "8da5cb5b",
					"sendTo(address,uint256)": "9e1a00aa",
					"withDraw(uint256)": "14174f33"
				}
			},
			"storageLayout": {
				"storage": [
					{
						"astId": 3,
						"contract": "contracts/DemoWallet.sol:DemoWallet",
						"label": "owner",
						"offset": 0,
						"slot": "0",
						"type": "t_address"
					}
				],
				"types": {
					"t_address": {
						"encoding": "inplace",
						"label": "address",
						"numberOfBytes": "20"
					}
				}
			},
			"userdoc": {
				"kind": "user",
				"methods": {},
				"version": 1
			}
		}
	}
}